{
  "_format": "hh-sol-artifact-1",
  "contractName": "JellyMaps",
  "sourceName": "contracts/JellyMaps.sol",
  "abi": [
    {
      "inputs": [
        {
          "internalType": "string[]",
          "name": "mapNames",
          "type": "string[]"
        },
        {
          "internalType": "string[]",
          "name": "mapImageURIs",
          "type": "string[]"
        }
      ],
      "stateMutability": "nonpayable",
      "type": "constructor"
    },
    {
      "anonymous": false,
      "inputs": [
        {
          "indexed": true,
          "internalType": "address",
          "name": "owner",
          "type": "address"
        },
        {
          "indexed": true,
          "internalType": "address",
          "name": "approved",
          "type": "address"
        },
        {
          "indexed": true,
          "internalType": "uint256",
          "name": "tokenId",
          "type": "uint256"
        }
      ],
      "name": "Approval",
      "type": "event"
    },
    {
      "anonymous": false,
      "inputs": [
        {
          "indexed": true,
          "internalType": "address",
          "name": "owner",
          "type": "address"
        },
        {
          "indexed": true,
          "internalType": "address",
          "name": "operator",
          "type": "address"
        },
        {
          "indexed": false,
          "internalType": "bool",
          "name": "approved",
          "type": "bool"
        }
      ],
      "name": "ApprovalForAll",
      "type": "event"
    },
    {
      "anonymous": false,
      "inputs": [
        {
          "indexed": false,
          "internalType": "address",
          "name": "sender",
          "type": "address"
        },
        {
          "indexed": false,
          "internalType": "uint256",
          "name": "tokenId",
          "type": "uint256"
        },
        {
          "indexed": false,
          "internalType": "uint256",
          "name": "levelIndex",
          "type": "uint256"
        }
      ],
      "name": "MapNFTMinted",
      "type": "event"
    },
    {
      "anonymous": false,
      "inputs": [
        {
          "indexed": true,
          "internalType": "address",
          "name": "from",
          "type": "address"
        },
        {
          "indexed": true,
          "internalType": "address",
          "name": "to",
          "type": "address"
        },
        {
          "indexed": true,
          "internalType": "uint256",
          "name": "tokenId",
          "type": "uint256"
        }
      ],
      "name": "Transfer",
      "type": "event"
    },
    {
      "inputs": [
        {
          "internalType": "address",
          "name": "to",
          "type": "address"
        },
        {
          "internalType": "uint256",
          "name": "tokenId",
          "type": "uint256"
        }
      ],
      "name": "approve",
      "outputs": [],
      "stateMutability": "nonpayable",
      "type": "function"
    },
    {
      "inputs": [
        {
          "internalType": "address",
          "name": "owner",
          "type": "address"
        }
      ],
      "name": "balanceOf",
      "outputs": [
        {
          "internalType": "uint256",
          "name": "",
          "type": "uint256"
        }
      ],
      "stateMutability": "view",
      "type": "function"
    },
    {
      "inputs": [],
      "name": "getAllDefaultMaps",
      "outputs": [
        {
          "components": [
            {
              "internalType": "uint256",
              "name": "tokenId",
              "type": "uint256"
            },
            {
              "internalType": "uint256",
              "name": "levelIndex",
              "type": "uint256"
            },
            {
              "internalType": "string",
              "name": "name",
              "type": "string"
            },
            {
              "internalType": "string",
              "name": "imageURI",
              "type": "string"
            }
          ],
          "internalType": "struct JellyMaps.MapAttributes[]",
          "name": "",
          "type": "tuple[]"
        }
      ],
      "stateMutability": "view",
      "type": "function"
    },
    {
      "inputs": [
        {
          "internalType": "uint256",
          "name": "tokenId",
          "type": "uint256"
        }
      ],
      "name": "getApproved",
      "outputs": [
        {
          "internalType": "address",
          "name": "",
          "type": "address"
        }
      ],
      "stateMutability": "view",
      "type": "function"
    },
    {
      "inputs": [
        {
          "internalType": "address",
          "name": "user",
          "type": "address"
        }
      ],
      "name": "getUserTokens",
      "outputs": [
        {
          "components": [
            {
              "internalType": "uint256",
              "name": "tokenId",
              "type": "uint256"
            },
            {
              "internalType": "uint256",
              "name": "levelIndex",
              "type": "uint256"
            },
            {
              "internalType": "string",
              "name": "name",
              "type": "string"
            },
            {
              "internalType": "string",
              "name": "imageURI",
              "type": "string"
            }
          ],
          "internalType": "struct JellyMaps.MapAttributes[]",
          "name": "",
          "type": "tuple[]"
        }
      ],
      "stateMutability": "view",
      "type": "function"
    },
    {
      "inputs": [
        {
          "internalType": "address",
          "name": "owner",
          "type": "address"
        },
        {
          "internalType": "address",
          "name": "operator",
          "type": "address"
        }
      ],
      "name": "isApprovedForAll",
      "outputs": [
        {
          "internalType": "bool",
          "name": "",
          "type": "bool"
        }
      ],
      "stateMutability": "view",
      "type": "function"
    },
    {
      "inputs": [
        {
          "internalType": "uint256",
          "name": "_levelIndex",
          "type": "uint256"
        }
      ],
      "name": "mintMapNFT",
      "outputs": [],
      "stateMutability": "nonpayable",
      "type": "function"
    },
    {
      "inputs": [],
      "name": "name",
      "outputs": [
        {
          "internalType": "string",
          "name": "",
          "type": "string"
        }
      ],
      "stateMutability": "view",
      "type": "function"
    },
    {
      "inputs": [
        {
          "internalType": "uint256",
          "name": "",
          "type": "uint256"
        }
      ],
      "name": "nftHolderAttributes",
      "outputs": [
        {
          "internalType": "uint256",
          "name": "tokenId",
          "type": "uint256"
        },
        {
          "internalType": "uint256",
          "name": "levelIndex",
          "type": "uint256"
        },
        {
          "internalType": "string",
          "name": "name",
          "type": "string"
        },
        {
          "internalType": "string",
          "name": "imageURI",
          "type": "string"
        }
      ],
      "stateMutability": "view",
      "type": "function"
    },
    {
      "inputs": [
        {
          "internalType": "uint256",
          "name": "tokenId",
          "type": "uint256"
        }
      ],
      "name": "ownerOf",
      "outputs": [
        {
          "internalType": "address",
          "name": "",
          "type": "address"
        }
      ],
      "stateMutability": "view",
      "type": "function"
    },
    {
      "inputs": [
        {
          "internalType": "address",
          "name": "from",
          "type": "address"
        },
        {
          "internalType": "address",
          "name": "to",
          "type": "address"
        },
        {
          "internalType": "uint256",
          "name": "tokenId",
          "type": "uint256"
        }
      ],
      "name": "safeTransferFrom",
      "outputs": [],
      "stateMutability": "nonpayable",
      "type": "function"
    },
    {
      "inputs": [
        {
          "internalType": "address",
          "name": "from",
          "type": "address"
        },
        {
          "internalType": "address",
          "name": "to",
          "type": "address"
        },
        {
          "internalType": "uint256",
          "name": "tokenId",
          "type": "uint256"
        },
        {
          "internalType": "bytes",
          "name": "data",
          "type": "bytes"
        }
      ],
      "name": "safeTransferFrom",
      "outputs": [],
      "stateMutability": "nonpayable",
      "type": "function"
    },
    {
      "inputs": [
        {
          "internalType": "address",
          "name": "operator",
          "type": "address"
        },
        {
          "internalType": "bool",
          "name": "approved",
          "type": "bool"
        }
      ],
      "name": "setApprovalForAll",
      "outputs": [],
      "stateMutability": "nonpayable",
      "type": "function"
    },
    {
      "inputs": [
        {
          "internalType": "bytes4",
          "name": "interfaceId",
          "type": "bytes4"
        }
      ],
      "name": "supportsInterface",
      "outputs": [
        {
          "internalType": "bool",
          "name": "",
          "type": "bool"
        }
      ],
      "stateMutability": "view",
      "type": "function"
    },
    {
      "inputs": [],
      "name": "symbol",
      "outputs": [
        {
          "internalType": "string",
          "name": "",
          "type": "string"
        }
      ],
      "stateMutability": "view",
      "type": "function"
    },
    {
      "inputs": [
        {
          "internalType": "uint256",
          "name": "_tokenId",
          "type": "uint256"
        }
      ],
      "name": "tokenURI",
      "outputs": [
        {
          "internalType": "string",
          "name": "",
          "type": "string"
        }
      ],
      "stateMutability": "view",
      "type": "function"
    },
    {
      "inputs": [
        {
          "internalType": "address",
          "name": "from",
          "type": "address"
        },
        {
          "internalType": "address",
          "name": "to",
          "type": "address"
        },
        {
          "internalType": "uint256",
          "name": "tokenId",
          "type": "uint256"
        }
      ],
      "name": "transferFrom",
      "outputs": [],
      "stateMutability": "nonpayable",
      "type": "function"
    },
    {
      "inputs": [
        {
          "internalType": "address",
          "name": "",
          "type": "address"
        },
        {
          "internalType": "uint256",
          "name": "",
          "type": "uint256"
        }
      ],
      "name": "userTokens",
      "outputs": [
        {
          "internalType": "uint256",
          "name": "tokenId",
          "type": "uint256"
        },
        {
          "internalType": "uint256",
          "name": "levelIndex",
          "type": "uint256"
        },
        {
          "internalType": "string",
          "name": "name",
          "type": "string"
        },
        {
          "internalType": "string",
          "name": "imageURI",
          "type": "string"
        }
      ],
      "stateMutability": "view",
      "type": "function"
    }
  ],
  "bytecode": "0x60806040523480156200001157600080fd5b5060405162002ae738038062002ae7833981016040819052620000349162000555565b604051806040016040528060098152602001684a656c6c794d61707360b81b8152506040518060400160405280600481526020016304a594d560e41b81525081600090816200008491906200064d565b5060016200009382826200064d565b50505060005b825181101562000344576007604051806080016040528060008152602001838152602001858481518110620000d257620000d262000719565b60200260200101518152602001848481518110620000f457620000f462000719565b60209081029190910181015190915282546001818101855560009485529382902083516004909202019081559082015192810192909255604081015190919060028201906200014490826200064d565b50606082015160038201906200015b90826200064d565b50505060006007828154811062000176576200017662000719565b90600052602060002090600402016040518060800160405290816000820154815260200160018201548152602001600282018054620001b590620005bf565b80601f0160208091040260200160405190810160405280929190818152602001828054620001e390620005bf565b8015620002345780601f10620002085761010080835404028352916020019162000234565b820191906000526020600020905b8154815290600101906020018083116200021657829003601f168201915b505050505081526020016003820180546200024f90620005bf565b80601f01602080910402602001604051908101604052809291908181526020018280546200027d90620005bf565b8015620002ce5780601f10620002a257610100808354040283529160200191620002ce565b820191906000526020600020905b815481529060010190602001808311620002b057829003601f168201915b50505050508152505090506200032e6040518060400160405280601c81526020017f446f6e6520696e697469616c697a696e672025732c20696d6720257300000000815250826040015183606001516200036460201b62000fd81760201c565b506200033c6001826200072f565b905062000099565b506200035c6006620003b860201b6200101f1760201c565b5050620007ce565b620003b38383836040516024016200037f9392919062000785565b60408051601f198184030181529190526020810180516001600160e01b03908116632ced7cef60e01b17909152620003c116565b505050565b80546001019055565b80516a636f6e736f6c652e6c6f67602083016000808483855afa5050505050565b634e487b7160e01b600052604160045260246000fd5b604051601f8201601f191681016001600160401b0381118282101715620004235762000423620003e2565b604052919050565b60005b83811015620004485781810151838201526020016200042e565b50506000910152565b6000601f83818401126200046457600080fd5b825160206001600160401b0380831115620004835762000483620003e2565b8260051b62000494838201620003f8565b9384528681018301938381019089861115620004af57600080fd5b84890192505b858310156200054857825184811115620004cf5760008081fd5b8901603f81018b13620004e25760008081fd5b85810151604086821115620004fb57620004fb620003e2565b6200050e828b01601f19168901620003f8565b8281528d82848601011115620005245760008081fd5b62000535838a83018487016200042b565b85525050509184019190840190620004b5565b9998505050505050505050565b600080604083850312156200056957600080fd5b82516001600160401b03808211156200058157600080fd5b6200058f8683870162000451565b93506020850151915080821115620005a657600080fd5b50620005b58582860162000451565b9150509250929050565b600181811c90821680620005d457607f821691505b602082108103620005f557634e487b7160e01b600052602260045260246000fd5b50919050565b601f821115620003b357600081815260208120601f850160051c81016020861015620006245750805b601f850160051c820191505b81811015620006455782815560010162000630565b505050505050565b81516001600160401b03811115620006695762000669620003e2565b62000681816200067a8454620005bf565b84620005fb565b602080601f831160018114620006b95760008415620006a05750858301515b600019600386901b1c1916600185901b17855562000645565b600085815260208120601f198616915b82811015620006ea57888601518255948401946001909101908401620006c9565b5085821015620007095787850151600019600388901b60f8161c191681555b5050505050600190811b01905550565b634e487b7160e01b600052603260045260246000fd5b808201808211156200075157634e487b7160e01b600052601160045260246000fd5b92915050565b60008151808452620007718160208601602086016200042b565b601f01601f19169290920160200192915050565b6060815260006200079a606083018662000757565b8281036020840152620007ae818662000757565b90508281036040840152620007c4818562000757565b9695505050505050565b61230980620007de6000396000f3fe608060405234801561001057600080fd5b50600436106101165760003560e01c806370a08231116100a2578063b88d4fde11610071578063b88d4fde14610258578063c87b56dd1461026b578063cef081891461027e578063e985e9c514610291578063f9f411d8146102a457600080fd5b806370a08231146101f957806395d89b411461021a57806398da4c9514610222578063a22cb4651461024557600080fd5b806323b872dd116100e957806323b872dd146101985780633215dd63146101ab57806342842e0e146101c0578063519dc8d2146101d35780636352211e146101e657600080fd5b806301ffc9a71461011b57806306fdde0314610143578063081812fc14610158578063095ea7b314610183575b600080fd5b61012e61012936600461196d565b6102b7565b60405190151581526020015b60405180910390f35b61014b610309565b60405161013a91906119e1565b61016b6101663660046119f4565b61039b565b6040516001600160a01b03909116815260200161013a565b610196610191366004611a29565b6103c2565b005b6101966101a6366004611a53565b6104dc565b6101b361050d565b60405161013a9190611a8f565b6101966101ce366004611a53565b6106a4565b6101b36101e1366004611b2b565b6106bf565b61016b6101f43660046119f4565b61086c565b61020c610207366004611b2b565b6108cc565b60405190815260200161013a565b61014b610952565b6102356102303660046119f4565b610961565b60405161013a9493929190611b46565b610196610253366004611b82565b610a9a565b610196610266366004611bd4565b610aa9565b61014b6102793660046119f4565b610ae1565b61019661028c3660046119f4565b610ca9565b61012e61029f366004611cb0565b610f5e565b6102356102b2366004611a29565b610f8c565b60006001600160e01b031982166380ac58cd60e01b14806102e857506001600160e01b03198216635b5e139f60e01b145b8061030357506301ffc9a760e01b6001600160e01b03198316145b92915050565b60606000805461031890611ce3565b80601f016020809104026020016040519081016040528092919081815260200182805461034490611ce3565b80156103915780601f1061036657610100808354040283529160200191610391565b820191906000526020600020905b81548152906001019060200180831161037457829003601f168201915b5050505050905090565b60006103a682611028565b506000908152600460205260409020546001600160a01b031690565b60006103cd8261086c565b9050806001600160a01b0316836001600160a01b03160361043f5760405162461bcd60e51b815260206004820152602160248201527f4552433732313a20617070726f76616c20746f2063757272656e74206f776e656044820152603960f91b60648201526084015b60405180910390fd5b336001600160a01b038216148061045b575061045b8133610f5e565b6104cd5760405162461bcd60e51b815260206004820152603e60248201527f4552433732313a20617070726f76652063616c6c6572206973206e6f7420746f60448201527f6b656e206f776e6572206e6f7220617070726f76656420666f7220616c6c00006064820152608401610436565b6104d7838361108a565b505050565b6104e633826110f8565b6105025760405162461bcd60e51b815260040161043690611d1d565b6104d7838383611157565b60606007805480602002602001604051908101604052809291908181526020016000905b8282101561069b5783829060005260206000209060040201604051806080016040529081600082015481526020016001820154815260200160028201805461057890611ce3565b80601f01602080910402602001604051908101604052809291908181526020018280546105a490611ce3565b80156105f15780601f106105c6576101008083540402835291602001916105f1565b820191906000526020600020905b8154815290600101906020018083116105d457829003601f168201915b5050505050815260200160038201805461060a90611ce3565b80601f016020809104026020016040519081016040528092919081815260200182805461063690611ce3565b80156106835780601f1061065857610100808354040283529160200191610683565b820191906000526020600020905b81548152906001019060200180831161066657829003601f168201915b50505050508152505081526020019060010190610531565b50505050905090565b6104d783838360405180602001604052806000815250610aa9565b6001600160a01b0381166000908152600960209081526040808320805482518185028101850190935280835260609492939192909184015b828210156108615783829060005260206000209060040201604051806080016040529081600082015481526020016001820154815260200160028201805461073e90611ce3565b80601f016020809104026020016040519081016040528092919081815260200182805461076a90611ce3565b80156107b75780601f1061078c576101008083540402835291602001916107b7565b820191906000526020600020905b81548152906001019060200180831161079a57829003601f168201915b505050505081526020016003820180546107d090611ce3565b80601f01602080910402602001604051908101604052809291908181526020018280546107fc90611ce3565b80156108495780601f1061081e57610100808354040283529160200191610849565b820191906000526020600020905b81548152906001019060200180831161082c57829003601f168201915b505050505081525050815260200190600101906106f7565b505050509050919050565b6000818152600260205260408120546001600160a01b0316806103035760405162461bcd60e51b8152602060048201526018602482015277115490cdcc8c4e881a5b9d985b1a59081d1bdad95b88125160421b6044820152606401610436565b60006001600160a01b0382166109365760405162461bcd60e51b815260206004820152602960248201527f4552433732313a2061646472657373207a65726f206973206e6f7420612076616044820152683634b21037bbb732b960b91b6064820152608401610436565b506001600160a01b031660009081526003602052604090205490565b60606001805461031890611ce3565b6008602052600090815260409020805460018201546002830180549293919261098990611ce3565b80601f01602080910402602001604051908101604052809291908181526020018280546109b590611ce3565b8015610a025780601f106109d757610100808354040283529160200191610a02565b820191906000526020600020905b8154815290600101906020018083116109e557829003601f168201915b505050505090806003018054610a1790611ce3565b80601f0160208091040260200160405190810160405280929190818152602001828054610a4390611ce3565b8015610a905780601f10610a6557610100808354040283529160200191610a90565b820191906000526020600020905b815481529060010190602001808311610a7357829003601f168201915b5050505050905084565b610aa53383836112f3565b5050565b610ab333836110f8565b610acf5760405162461bcd60e51b815260040161043690611d1d565b610adb848484846113c1565b50505050565b60606000600860008481526020019081526020016000206040518060800160405290816000820154815260200160018201548152602001600282018054610b2790611ce3565b80601f0160208091040260200160405190810160405280929190818152602001828054610b5390611ce3565b8015610ba05780601f10610b7557610100808354040283529160200191610ba0565b820191906000526020600020905b815481529060010190602001808311610b8357829003601f168201915b50505050508152602001600382018054610bb990611ce3565b80601f0160208091040260200160405190810160405280929190818152602001828054610be590611ce3565b8015610c325780601f10610c0757610100808354040283529160200191610c32565b820191906000526020600020905b815481529060010190602001808311610c1557829003601f168201915b50505050508152505090506000610c7b8260400151610c50866113f4565b8460600151604051602001610c6793929190611d6b565b6040516020818303038152906040526114f5565b9050600081604051602001610c909190611e69565b60408051601f1981840301815291905295945050505050565b6000610cb460065490565b9050604051806080016040528082815260200183815260200160078481548110610ce057610ce0611eae565b90600052602060002090600402016002018054610cfc90611ce3565b80601f0160208091040260200160405190810160405280929190818152602001828054610d2890611ce3565b8015610d755780601f10610d4a57610100808354040283529160200191610d75565b820191906000526020600020905b815481529060010190602001808311610d5857829003601f168201915b5050505050815260200160078481548110610d9257610d92611eae565b90600052602060002090600402016003018054610dae90611ce3565b80601f0160208091040260200160405190810160405280929190818152602001828054610dda90611ce3565b8015610e275780601f10610dfc57610100808354040283529160200191610e27565b820191906000526020600020905b815481529060010190602001808311610e0a57829003601f168201915b50505091909252505060008281526008602090815260409182902083518155908301516001820155908201516002820190610e629082611f12565b5060608201516003820190610e779082611f12565b50905050610e9e6040518060600160405280602a815260200161226a602a9139828461165f565b336000908152600960209081526040808320848452600883529083208154600181810184559285529290932083546004909302019182558083015490820155600280820190610eef90840182611fd2565b50600381810190610f0290840182611fd2565b505060408051338152602081018490529081018490527fee49c4d50f77394698318467da47b6cecd1a5919a461992bb5ee1104e4c2311c915060600160405180910390a1610f54600680546001019055565b610aa533826116a6565b6001600160a01b03918216600090815260056020908152604080832093909416825291909152205460ff1690565b60096020528160005260406000208181548110610fa857600080fd5b90600052602060002090600402016000915091505080600001549080600101549080600201805461098990611ce3565b6104d7838383604051602401610ff0939291906120ad565b60408051601f198184030181529190526020810180516001600160e01b0316632ced7cef60e01b1790526116c0565b80546001019055565b6000818152600260205260409020546001600160a01b03166110875760405162461bcd60e51b8152602060048201526018602482015277115490cdcc8c4e881a5b9d985b1a59081d1bdad95b88125160421b6044820152606401610436565b50565b600081815260046020526040902080546001600160a01b0319166001600160a01b03841690811790915581906110bf8261086c565b6001600160a01b03167f8c5be1e5ebec7d5bd14f71427d1e84f3dd0314c0f7b2291e5b200ac8c7c3b92560405160405180910390a45050565b6000806111048361086c565b9050806001600160a01b0316846001600160a01b0316148061112b575061112b8185610f5e565b8061114f5750836001600160a01b03166111448461039b565b6001600160a01b0316145b949350505050565b826001600160a01b031661116a8261086c565b6001600160a01b0316146111ce5760405162461bcd60e51b815260206004820152602560248201527f4552433732313a207472616e736665722066726f6d20696e636f72726563742060448201526437bbb732b960d91b6064820152608401610436565b6001600160a01b0382166112305760405162461bcd60e51b8152602060048201526024808201527f4552433732313a207472616e7366657220746f20746865207a65726f206164646044820152637265737360e01b6064820152608401610436565b61123b60008261108a565b6001600160a01b0383166000908152600360205260408120805460019290611264908490612106565b90915550506001600160a01b0382166000908152600360205260408120805460019290611292908490612119565b909155505060008181526002602052604080822080546001600160a01b0319166001600160a01b0386811691821790925591518493918716917fddf252ad1be2c89b69c2b068fc378daa952ba7f163c4a11628f55a4df523b3ef91a4505050565b816001600160a01b0316836001600160a01b0316036113545760405162461bcd60e51b815260206004820152601960248201527f4552433732313a20617070726f766520746f2063616c6c6572000000000000006044820152606401610436565b6001600160a01b03838116600081815260056020908152604080832094871680845294825291829020805460ff191686151590811790915591519182527f17307eab39ab6107e8899845ad3d59bd9653f200f220920489ca2b5937696c31910160405180910390a3505050565b6113cc848484611157565b6113d8848484846116e1565b610adb5760405162461bcd60e51b81526004016104369061212c565b60608160000361141b5750506040805180820190915260018152600360fc1b602082015290565b8160005b8115611445578061142f8161217e565b915061143e9050600a836121ad565b915061141f565b60008167ffffffffffffffff81111561146057611460611bbe565b6040519080825280601f01601f19166020018201604052801561148a576020820181803683370190505b5090505b841561114f5761149f600183612106565b91506114ac600a866121c1565b6114b7906030612119565b60f81b8183815181106114cc576114cc611eae565b60200101906001600160f81b031916908160001a9053506114ee600a866121ad565b945061148e565b80516060906000819003611519575050604080516020810190915260008152919050565b60006003611528836002612119565b61153291906121ad565b61153d9060046121d5565b9050600061154c826020612119565b67ffffffffffffffff81111561156457611564611bbe565b6040519080825280601f01601f19166020018201604052801561158e576020820181803683370190505b5090506000604051806060016040528060408152602001612294604091399050600181016020830160005b8681101561161a576003818a01810151603f601282901c8116860151600c83901c8216870151600684901c831688015192909316870151600891821b60ff94851601821b92841692909201901b91160160e01b8352600490920191016115b9565b506003860660018114611634576002811461164557611651565b613d3d60f01b600119830152611651565b603d60f81b6000198301525b505050918152949350505050565b6104d7838383604051602401611677939291906121f4565b60408051601f198184030181529190526020810180516001600160e01b031663ca47c4eb60e01b1790526116c0565b610aa58282604051806020016040528060008152506117e2565b80516a636f6e736f6c652e6c6f67602083016000808483855afa5050505050565b60006001600160a01b0384163b156117d757604051630a85bd0160e11b81526001600160a01b0385169063150b7a0290611725903390899088908890600401612219565b6020604051808303816000875af1925050508015611760575060408051601f3d908101601f1916820190925261175d9181019061224c565b60015b6117bd573d80801561178e576040519150601f19603f3d011682016040523d82523d6000602084013e611793565b606091505b5080516000036117b55760405162461bcd60e51b81526004016104369061212c565b805181602001fd5b6001600160e01b031916630a85bd0160e11b14905061114f565b506001949350505050565b6117ec8383611815565b6117f960008484846116e1565b6104d75760405162461bcd60e51b81526004016104369061212c565b6001600160a01b03821661186b5760405162461bcd60e51b815260206004820181905260248201527f4552433732313a206d696e7420746f20746865207a65726f20616464726573736044820152606401610436565b6000818152600260205260409020546001600160a01b0316156118d05760405162461bcd60e51b815260206004820152601c60248201527f4552433732313a20746f6b656e20616c7265616479206d696e746564000000006044820152606401610436565b6001600160a01b03821660009081526003602052604081208054600192906118f9908490612119565b909155505060008181526002602052604080822080546001600160a01b0319166001600160a01b03861690811790915590518392907fddf252ad1be2c89b69c2b068fc378daa952ba7f163c4a11628f55a4df523b3ef908290a45050565b6001600160e01b03198116811461108757600080fd5b60006020828403121561197f57600080fd5b813561198a81611957565b9392505050565b60005b838110156119ac578181015183820152602001611994565b50506000910152565b600081518084526119cd816020860160208601611991565b601f01601f19169290920160200192915050565b60208152600061198a60208301846119b5565b600060208284031215611a0657600080fd5b5035919050565b80356001600160a01b0381168114611a2457600080fd5b919050565b60008060408385031215611a3c57600080fd5b611a4583611a0d565b946020939093013593505050565b600080600060608486031215611a6857600080fd5b611a7184611a0d565b9250611a7f60208501611a0d565b9150604084013590509250925092565b60006020808301818452808551808352604092508286019150828160051b87010184880160005b83811015611b1d57603f1989840301855281516080815185528882015189860152878201518189870152611aec828701826119b5565b91505060608083015192508582038187015250611b0981836119b5565b968901969450505090860190600101611ab6565b509098975050505050505050565b600060208284031215611b3d57600080fd5b61198a82611a0d565b848152836020820152608060408201526000611b6560808301856119b5565b8281036060840152611b7781856119b5565b979650505050505050565b60008060408385031215611b9557600080fd5b611b9e83611a0d565b915060208301358015158114611bb357600080fd5b809150509250929050565b634e487b7160e01b600052604160045260246000fd5b60008060008060808587031215611bea57600080fd5b611bf385611a0d565b9350611c0160208601611a0d565b925060408501359150606085013567ffffffffffffffff80821115611c2557600080fd5b818701915087601f830112611c3957600080fd5b813581811115611c4b57611c4b611bbe565b604051601f8201601f19908116603f01168101908382118183101715611c7357611c73611bbe565b816040528281528a6020848701011115611c8c57600080fd5b82602086016020830137600060208483010152809550505050505092959194509250565b60008060408385031215611cc357600080fd5b611ccc83611a0d565b9150611cda60208401611a0d565b90509250929050565b600181811c90821680611cf757607f821691505b602082108103611d1757634e487b7160e01b600052602260045260246000fd5b50919050565b6020808252602e908201527f4552433732313a2063616c6c6572206973206e6f7420746f6b656e206f776e6560408201526d1c881b9bdc88185c1c1c9bdd995960921b606082015260800190565b693d913730b6b2911d101160b11b81528351600090611d9181600a850160208901611991565b7101d102532b6363c9026b0b81027232a1011960751b600a918401918201528451611dc381601c840160208901611991565b7f222c20226465736372697074696f6e223a2022556e6c6f636b2061206e657720601c92909101918201527f61726561206f6620746865206d657461766572736520666f7220796f7572206a603c8201527f656c6c7920746f206578706c6f726521222c2022696d616765223a2022000000605c8201528351611e4d816079840160208801611991565b61227d60f01b60799290910191820152607b0195945050505050565b7f646174613a6170706c69636174696f6e2f6a736f6e3b6261736536342c000000815260008251611ea181601d850160208701611991565b91909101601d0192915050565b634e487b7160e01b600052603260045260246000fd5b601f8211156104d757600081815260208120601f850160051c81016020861015611eeb5750805b601f850160051c820191505b81811015611f0a57828155600101611ef7565b505050505050565b815167ffffffffffffffff811115611f2c57611f2c611bbe565b611f4081611f3a8454611ce3565b84611ec4565b602080601f831160018114611f755760008415611f5d5750858301515b600019600386901b1c1916600185901b178555611f0a565b600085815260208120601f198616915b82811015611fa457888601518255948401946001909101908401611f85565b5085821015611fc25787850151600019600388901b60f8161c191681555b5050505050600190811b01905550565b818103611fdd575050565b611fe78254611ce3565b67ffffffffffffffff811115611fff57611fff611bbe565b61200d81611f3a8454611ce3565b6000601f82116001811461204157600083156120295750848201545b600019600385901b1c1916600184901b1784556120a6565b600085815260209020601f19841690600086815260209020845b8381101561207b578286015482556001958601959091019060200161205b565b50858310156120995781850154600019600388901b60f8161c191681555b50505060018360011b0184555b5050505050565b6060815260006120c060608301866119b5565b82810360208401526120d281866119b5565b905082810360408401526120e681856119b5565b9695505050505050565b634e487b7160e01b600052601160045260246000fd5b81810381811115610303576103036120f0565b80820180821115610303576103036120f0565b60208082526032908201527f4552433732313a207472616e7366657220746f206e6f6e20455243373231526560408201527131b2b4bb32b91034b6b83632b6b2b73a32b960711b606082015260800190565b600060018201612190576121906120f0565b5060010190565b634e487b7160e01b600052601260045260246000fd5b6000826121bc576121bc612197565b500490565b6000826121d0576121d0612197565b500690565b60008160001904831182151516156121ef576121ef6120f0565b500290565b60608152600061220760608301866119b5565b60208301949094525060400152919050565b6001600160a01b03858116825284166020820152604081018390526080606082018190526000906120e6908301846119b5565b60006020828403121561225e57600080fd5b815161198a8161195756fe4d696e746564204e465420772f20746f6b656e496420257320616e64206c6576656c496e6465782025734142434445464748494a4b4c4d4e4f505152535455565758595a6162636465666768696a6b6c6d6e6f707172737475767778797a303132333435363738392b2fa2646970667358221220537239ccf8bc9a3425acc82e14fa311ce6cffa688d6223d375268e5ce6a83b9564736f6c63430008100033",
  "linkReferences": {},
  "deployedLinkReferences": {}
}