{
  "_format": "hh-sol-artifact-1",
  "contractName": "Jellies",
  "sourceName": "contracts/Jellies.sol",
  "abi": [
    {
      "inputs": [
        {
          "internalType": "string[]",
          "name": "characterNames",
          "type": "string[]"
        },
        {
          "internalType": "string[]",
          "name": "characterImageURIs",
          "type": "string[]"
        },
        {
          "internalType": "uint256[]",
          "name": "characterSpeed",
          "type": "uint256[]"
        },
        {
          "internalType": "uint256[]",
          "name": "characterJumpHeight",
          "type": "uint256[]"
        }
      ],
      "stateMutability": "nonpayable",
      "type": "constructor"
    },
    {
      "anonymous": false,
      "inputs": [
        {
          "indexed": true,
          "internalType": "address",
          "name": "owner",
          "type": "address"
        },
        {
          "indexed": true,
          "internalType": "address",
          "name": "approved",
          "type": "address"
        },
        {
          "indexed": true,
          "internalType": "uint256",
          "name": "tokenId",
          "type": "uint256"
        }
      ],
      "name": "Approval",
      "type": "event"
    },
    {
      "anonymous": false,
      "inputs": [
        {
          "indexed": true,
          "internalType": "address",
          "name": "owner",
          "type": "address"
        },
        {
          "indexed": true,
          "internalType": "address",
          "name": "operator",
          "type": "address"
        },
        {
          "indexed": false,
          "internalType": "bool",
          "name": "approved",
          "type": "bool"
        }
      ],
      "name": "ApprovalForAll",
      "type": "event"
    },
    {
      "anonymous": false,
      "inputs": [
        {
          "indexed": false,
          "internalType": "address",
          "name": "sender",
          "type": "address"
        },
        {
          "indexed": false,
          "internalType": "uint256",
          "name": "tokenId",
          "type": "uint256"
        },
        {
          "indexed": false,
          "internalType": "uint256",
          "name": "characterIndex",
          "type": "uint256"
        }
      ],
      "name": "JellyNFTMinted",
      "type": "event"
    },
    {
      "anonymous": false,
      "inputs": [
        {
          "indexed": true,
          "internalType": "address",
          "name": "from",
          "type": "address"
        },
        {
          "indexed": true,
          "internalType": "address",
          "name": "to",
          "type": "address"
        },
        {
          "indexed": true,
          "internalType": "uint256",
          "name": "tokenId",
          "type": "uint256"
        }
      ],
      "name": "Transfer",
      "type": "event"
    },
    {
      "inputs": [
        {
          "internalType": "address",
          "name": "to",
          "type": "address"
        },
        {
          "internalType": "uint256",
          "name": "tokenId",
          "type": "uint256"
        }
      ],
      "name": "approve",
      "outputs": [],
      "stateMutability": "nonpayable",
      "type": "function"
    },
    {
      "inputs": [
        {
          "internalType": "address",
          "name": "owner",
          "type": "address"
        }
      ],
      "name": "balanceOf",
      "outputs": [
        {
          "internalType": "uint256",
          "name": "",
          "type": "uint256"
        }
      ],
      "stateMutability": "view",
      "type": "function"
    },
    {
      "inputs": [],
      "name": "getAllDefaultJellies",
      "outputs": [
        {
          "components": [
            {
              "internalType": "uint256",
              "name": "tokenId",
              "type": "uint256"
            },
            {
              "internalType": "uint256",
              "name": "characterIndex",
              "type": "uint256"
            },
            {
              "internalType": "string",
              "name": "name",
              "type": "string"
            },
            {
              "internalType": "string",
              "name": "imageURI",
              "type": "string"
            },
            {
              "internalType": "uint256",
              "name": "speed",
              "type": "uint256"
            },
            {
              "internalType": "uint256",
              "name": "jumpHeight",
              "type": "uint256"
            }
          ],
          "internalType": "struct Jellies.JellyAttributes[]",
          "name": "",
          "type": "tuple[]"
        }
      ],
      "stateMutability": "view",
      "type": "function"
    },
    {
      "inputs": [
        {
          "internalType": "uint256",
          "name": "tokenId",
          "type": "uint256"
        }
      ],
      "name": "getApproved",
      "outputs": [
        {
          "internalType": "address",
          "name": "",
          "type": "address"
        }
      ],
      "stateMutability": "view",
      "type": "function"
    },
    {
      "inputs": [
        {
          "internalType": "address",
          "name": "user",
          "type": "address"
        }
      ],
      "name": "getUserTokens",
      "outputs": [
        {
          "components": [
            {
              "internalType": "uint256",
              "name": "tokenId",
              "type": "uint256"
            },
            {
              "internalType": "uint256",
              "name": "characterIndex",
              "type": "uint256"
            },
            {
              "internalType": "string",
              "name": "name",
              "type": "string"
            },
            {
              "internalType": "string",
              "name": "imageURI",
              "type": "string"
            },
            {
              "internalType": "uint256",
              "name": "speed",
              "type": "uint256"
            },
            {
              "internalType": "uint256",
              "name": "jumpHeight",
              "type": "uint256"
            }
          ],
          "internalType": "struct Jellies.JellyAttributes[]",
          "name": "",
          "type": "tuple[]"
        }
      ],
      "stateMutability": "view",
      "type": "function"
    },
    {
      "inputs": [
        {
          "internalType": "address",
          "name": "owner",
          "type": "address"
        },
        {
          "internalType": "address",
          "name": "operator",
          "type": "address"
        }
      ],
      "name": "isApprovedForAll",
      "outputs": [
        {
          "internalType": "bool",
          "name": "",
          "type": "bool"
        }
      ],
      "stateMutability": "view",
      "type": "function"
    },
    {
      "inputs": [
        {
          "internalType": "uint256",
          "name": "_characterIndex",
          "type": "uint256"
        }
      ],
      "name": "mintJellyNFT",
      "outputs": [],
      "stateMutability": "nonpayable",
      "type": "function"
    },
    {
      "inputs": [],
      "name": "name",
      "outputs": [
        {
          "internalType": "string",
          "name": "",
          "type": "string"
        }
      ],
      "stateMutability": "view",
      "type": "function"
    },
    {
      "inputs": [
        {
          "internalType": "uint256",
          "name": "",
          "type": "uint256"
        }
      ],
      "name": "nftHolderAttributes",
      "outputs": [
        {
          "internalType": "uint256",
          "name": "tokenId",
          "type": "uint256"
        },
        {
          "internalType": "uint256",
          "name": "characterIndex",
          "type": "uint256"
        },
        {
          "internalType": "string",
          "name": "name",
          "type": "string"
        },
        {
          "internalType": "string",
          "name": "imageURI",
          "type": "string"
        },
        {
          "internalType": "uint256",
          "name": "speed",
          "type": "uint256"
        },
        {
          "internalType": "uint256",
          "name": "jumpHeight",
          "type": "uint256"
        }
      ],
      "stateMutability": "view",
      "type": "function"
    },
    {
      "inputs": [
        {
          "internalType": "uint256",
          "name": "tokenId",
          "type": "uint256"
        }
      ],
      "name": "ownerOf",
      "outputs": [
        {
          "internalType": "address",
          "name": "",
          "type": "address"
        }
      ],
      "stateMutability": "view",
      "type": "function"
    },
    {
      "inputs": [
        {
          "internalType": "address",
          "name": "from",
          "type": "address"
        },
        {
          "internalType": "address",
          "name": "to",
          "type": "address"
        },
        {
          "internalType": "uint256",
          "name": "tokenId",
          "type": "uint256"
        }
      ],
      "name": "safeTransferFrom",
      "outputs": [],
      "stateMutability": "nonpayable",
      "type": "function"
    },
    {
      "inputs": [
        {
          "internalType": "address",
          "name": "from",
          "type": "address"
        },
        {
          "internalType": "address",
          "name": "to",
          "type": "address"
        },
        {
          "internalType": "uint256",
          "name": "tokenId",
          "type": "uint256"
        },
        {
          "internalType": "bytes",
          "name": "data",
          "type": "bytes"
        }
      ],
      "name": "safeTransferFrom",
      "outputs": [],
      "stateMutability": "nonpayable",
      "type": "function"
    },
    {
      "inputs": [
        {
          "internalType": "address",
          "name": "operator",
          "type": "address"
        },
        {
          "internalType": "bool",
          "name": "approved",
          "type": "bool"
        }
      ],
      "name": "setApprovalForAll",
      "outputs": [],
      "stateMutability": "nonpayable",
      "type": "function"
    },
    {
      "inputs": [
        {
          "internalType": "bytes4",
          "name": "interfaceId",
          "type": "bytes4"
        }
      ],
      "name": "supportsInterface",
      "outputs": [
        {
          "internalType": "bool",
          "name": "",
          "type": "bool"
        }
      ],
      "stateMutability": "view",
      "type": "function"
    },
    {
      "inputs": [],
      "name": "symbol",
      "outputs": [
        {
          "internalType": "string",
          "name": "",
          "type": "string"
        }
      ],
      "stateMutability": "view",
      "type": "function"
    },
    {
      "inputs": [
        {
          "internalType": "uint256",
          "name": "_tokenId",
          "type": "uint256"
        }
      ],
      "name": "tokenURI",
      "outputs": [
        {
          "internalType": "string",
          "name": "",
          "type": "string"
        }
      ],
      "stateMutability": "view",
      "type": "function"
    },
    {
      "inputs": [
        {
          "internalType": "address",
          "name": "from",
          "type": "address"
        },
        {
          "internalType": "address",
          "name": "to",
          "type": "address"
        },
        {
          "internalType": "uint256",
          "name": "tokenId",
          "type": "uint256"
        }
      ],
      "name": "transferFrom",
      "outputs": [],
      "stateMutability": "nonpayable",
      "type": "function"
    },
    {
      "inputs": [
        {
          "internalType": "address",
          "name": "",
          "type": "address"
        },
        {
          "internalType": "uint256",
          "name": "",
          "type": "uint256"
        }
      ],
      "name": "userTokens",
      "outputs": [
        {
          "internalType": "uint256",
          "name": "tokenId",
          "type": "uint256"
        },
        {
          "internalType": "uint256",
          "name": "characterIndex",
          "type": "uint256"
        },
        {
          "internalType": "string",
          "name": "name",
          "type": "string"
        },
        {
          "internalType": "string",
          "name": "imageURI",
          "type": "string"
        },
        {
          "internalType": "uint256",
          "name": "speed",
          "type": "uint256"
        },
        {
          "internalType": "uint256",
          "name": "jumpHeight",
          "type": "uint256"
        }
      ],
      "stateMutability": "view",
      "type": "function"
    }
  ],
  "bytecode": "0x60806040523480156200001157600080fd5b5060405162002dd838038062002dd883398101604081905262000034916200064a565b604051806040016040528060078152602001664a656c6c69657360c81b815250604051806040016040528060048152602001634a4c4c5960e01b815250816000908162000082919062000791565b50600162000091828262000791565b50505060005b8451811015620003ae5760076040518060c0016040528060008152602001838152602001878481518110620000d057620000d06200085d565b60200260200101518152602001868481518110620000f257620000f26200085d565b602002602001015181526020018584815181106200011457620001146200085d565b602002602001015181526020018484815181106200013657620001366200085d565b602090810291909101810151909152825460018181018555600094855293829020835160069092020190815590820151928101929092556040810151909190600282019062000186908262000791565b50606082015160038201906200019d908262000791565b506080820151816004015560a082015181600501555050600060078281548110620001cc57620001cc6200085d565b90600052602060002090600602016040518060c001604052908160008201548152602001600182015481526020016002820180546200020b9062000703565b80601f0160208091040260200160405190810160405280929190818152602001828054620002399062000703565b80156200028a5780601f106200025e576101008083540402835291602001916200028a565b820191906000526020600020905b8154815290600101906020018083116200026c57829003601f168201915b50505050508152602001600382018054620002a59062000703565b80601f0160208091040260200160405190810160405280929190818152602001828054620002d39062000703565b8015620003245780601f10620002f85761010080835404028352916020019162000324565b820191906000526020600020905b8154815290600101906020018083116200030657829003601f168201915b50505050508152602001600482015481526020016005820154815250509050620003986040518060400160405280601c81526020017f446f6e6520696e697469616c697a696e672025732c20696d672025730000000081525082604001518360600151620003d060201b620010cd1760201c565b50620003a660018262000873565b905062000097565b50620003c660066200042460201b620011141760201c565b5050505062000912565b6200041f838383604051602401620003eb93929190620008c9565b60408051601f198184030181529190526020810180516001600160e01b03908116632ced7cef60e01b179091526200042d16565b505050565b80546001019055565b80516a636f6e736f6c652e6c6f67602083016000808483855afa5050505050565b634e487b7160e01b600052604160045260246000fd5b604051601f8201601f191681016001600160401b03811182821017156200048f576200048f6200044e565b604052919050565b60006001600160401b03821115620004b357620004b36200044e565b5060051b60200190565b60005b83811015620004da578181015183820152602001620004c0565b50506000910152565b6000601f8381840112620004f657600080fd5b825160206200050f620005098362000497565b62000464565b82815260059290921b850181019181810190878411156200052f57600080fd5b8287015b84811015620005d15780516001600160401b0380821115620005555760008081fd5b818a0191508a603f8301126200056b5760008081fd5b858201516040828211156200058457620005846200044e565b62000597828b01601f1916890162000464565b92508183528c81838601011115620005af5760008081fd5b620005c082898501838701620004bd565b505084525091830191830162000533565b50979650505050505050565b600082601f830112620005ef57600080fd5b8151602062000602620005098362000497565b82815260059290921b840181019181810190868411156200062257600080fd5b8286015b848110156200063f578051835291830191830162000626565b509695505050505050565b600080600080608085870312156200066157600080fd5b84516001600160401b03808211156200067957600080fd5b6200068788838901620004e3565b955060208701519150808211156200069e57600080fd5b620006ac88838901620004e3565b94506040870151915080821115620006c357600080fd5b620006d188838901620005dd565b93506060870151915080821115620006e857600080fd5b50620006f787828801620005dd565b91505092959194509250565b600181811c908216806200071857607f821691505b6020821081036200073957634e487b7160e01b600052602260045260246000fd5b50919050565b601f8211156200041f57600081815260208120601f850160051c81016020861015620007685750805b601f850160051c820191505b81811015620007895782815560010162000774565b505050505050565b81516001600160401b03811115620007ad57620007ad6200044e565b620007c581620007be845462000703565b846200073f565b602080601f831160018114620007fd5760008415620007e45750858301515b600019600386901b1c1916600185901b17855562000789565b600085815260208120601f198616915b828110156200082e578886015182559484019460019091019084016200080d565b50858210156200084d5787850151600019600388901b60f8161c191681555b5050505050600190811b01905550565b634e487b7160e01b600052603260045260246000fd5b808201808211156200089557634e487b7160e01b600052601160045260246000fd5b92915050565b60008151808452620008b5816020860160208601620004bd565b601f01601f19169290920160200192915050565b606081526000620008de60608301866200089b565b8281036020840152620008f281866200089b565b905082810360408401526200090881856200089b565b9695505050505050565b6124b680620009226000396000f3fe608060405234801561001057600080fd5b50600436106101165760003560e01c80636352211e116100a2578063a22cb46511610071578063a22cb4651461025a578063b88d4fde1461026d578063c87b56dd14610280578063e985e9c514610293578063f9f411d8146102a657600080fd5b80636352211e146101f957806370a082311461020c57806395d89b411461022d57806398da4c951461023557600080fd5b806323b872dd116100e957806323b872dd14610198578063277dfd54146101ab5780633c97b9dc146101be57806342842e0e146101d3578063519dc8d2146101e657600080fd5b806301ffc9a71461011b57806306fdde0314610143578063081812fc14610158578063095ea7b314610183575b600080fd5b61012e610129366004611a62565b6102b9565b60405190151581526020015b60405180910390f35b61014b61030b565b60405161013a9190611ad6565b61016b610166366004611ae9565b61039d565b6040516001600160a01b03909116815260200161013a565b610196610191366004611b1e565b6103c4565b005b6101966101a6366004611b48565b6104de565b6101966101b9366004611ae9565b61050f565b6101c661083f565b60405161013a9190611b84565b6101966101e1366004611b48565b6109ea565b6101c66101f4366004611c34565b610a05565b61016b610207366004611ae9565b610bc6565b61021f61021a366004611c34565b610c26565b60405190815260200161013a565b61014b610cac565b610248610243366004611ae9565b610cbb565b60405161013a96959493929190611c4f565b610196610268366004611c96565b610e00565b61019661027b366004611ce8565b610e0b565b61014b61028e366004611ae9565b610e43565b61012e6102a1366004611dc4565b611053565b6102486102b4366004611b1e565b611081565b60006001600160e01b031982166380ac58cd60e01b14806102ea57506001600160e01b03198216635b5e139f60e01b145b8061030557506301ffc9a760e01b6001600160e01b03198316145b92915050565b60606000805461031a90611df7565b80601f016020809104026020016040519081016040528092919081815260200182805461034690611df7565b80156103935780601f1061036857610100808354040283529160200191610393565b820191906000526020600020905b81548152906001019060200180831161037657829003601f168201915b5050505050905090565b60006103a88261111d565b506000908152600460205260409020546001600160a01b031690565b60006103cf82610bc6565b9050806001600160a01b0316836001600160a01b0316036104415760405162461bcd60e51b815260206004820152602160248201527f4552433732313a20617070726f76616c20746f2063757272656e74206f776e656044820152603960f91b60648201526084015b60405180910390fd5b336001600160a01b038216148061045d575061045d8133611053565b6104cf5760405162461bcd60e51b815260206004820152603e60248201527f4552433732313a20617070726f76652063616c6c6572206973206e6f7420746f60448201527f6b656e206f776e6572206e6f7220617070726f76656420666f7220616c6c00006064820152608401610438565b6104d9838361117f565b505050565b6104e833826111ed565b6105045760405162461bcd60e51b815260040161043890611e31565b6104d983838361124c565b600061051a60065490565b90506040518060c001604052808281526020018381526020016007848154811061054657610546611e7f565b9060005260206000209060060201600201805461056290611df7565b80601f016020809104026020016040519081016040528092919081815260200182805461058e90611df7565b80156105db5780601f106105b0576101008083540402835291602001916105db565b820191906000526020600020905b8154815290600101906020018083116105be57829003601f168201915b50505050508152602001600784815481106105f8576105f8611e7f565b9060005260206000209060060201600301805461061490611df7565b80601f016020809104026020016040519081016040528092919081815260200182805461064090611df7565b801561068d5780601f106106625761010080835404028352916020019161068d565b820191906000526020600020905b81548152906001019060200180831161067057829003601f168201915b50505050508152602001600784815481106106aa576106aa611e7f565b9060005260206000209060060201600401548152602001600784815481106106d4576106d4611e7f565b60009182526020808320600560069093020191909101549092528381526008825260409081902083518155918301516001830155820151600282019061071a9082611ee3565b506060820151600382019061072f9082611ee3565b506080820151816004015560a0820151816005015590505061076a60405180606001604052806025815260200161245c6025913982846113e8565b3360009081526009602090815260408083208484526008835290832081546001818101845592855292909320835460069093020191825580830154908201556002808201906107bb90840182611fa3565b506003818101906107ce90840182611fa3565b506004828101549082015560059182015491015560408051338152602081018390529081018390527f25c0b45b20f3f2c5ec15b6d1d03e8388c0fa5c8356de47a66e86deecb57f1fd29060600160405180910390a1610831600680546001019055565b61083b338261142f565b5050565b60606007805480602002602001604051908101604052809291908181526020016000905b828210156109e157838290600052602060002090600602016040518060c001604052908160008201548152602001600182015481526020016002820180546108aa90611df7565b80601f01602080910402602001604051908101604052809291908181526020018280546108d690611df7565b80156109235780601f106108f857610100808354040283529160200191610923565b820191906000526020600020905b81548152906001019060200180831161090657829003601f168201915b5050505050815260200160038201805461093c90611df7565b80601f016020809104026020016040519081016040528092919081815260200182805461096890611df7565b80156109b55780601f1061098a576101008083540402835291602001916109b5565b820191906000526020600020905b81548152906001019060200180831161099857829003601f168201915b505050505081526020016004820154815260200160058201548152505081526020019060010190610863565b50505050905090565b6104d983838360405180602001604052806000815250610e0b565b6001600160a01b0381166000908152600960209081526040808320805482518185028101850190935280835260609492939192909184015b82821015610bbb57838290600052602060002090600602016040518060c00160405290816000820154815260200160018201548152602001600282018054610a8490611df7565b80601f0160208091040260200160405190810160405280929190818152602001828054610ab090611df7565b8015610afd5780601f10610ad257610100808354040283529160200191610afd565b820191906000526020600020905b815481529060010190602001808311610ae057829003601f168201915b50505050508152602001600382018054610b1690611df7565b80601f0160208091040260200160405190810160405280929190818152602001828054610b4290611df7565b8015610b8f5780601f10610b6457610100808354040283529160200191610b8f565b820191906000526020600020905b815481529060010190602001808311610b7257829003601f168201915b505050505081526020016004820154815260200160058201548152505081526020019060010190610a3d565b505050509050919050565b6000818152600260205260408120546001600160a01b0316806103055760405162461bcd60e51b8152602060048201526018602482015277115490cdcc8c4e881a5b9d985b1a59081d1bdad95b88125160421b6044820152606401610438565b60006001600160a01b038216610c905760405162461bcd60e51b815260206004820152602960248201527f4552433732313a2061646472657373207a65726f206973206e6f7420612076616044820152683634b21037bbb732b960b91b6064820152608401610438565b506001600160a01b031660009081526003602052604090205490565b60606001805461031a90611df7565b60086020526000908152604090208054600182015460028301805492939192610ce390611df7565b80601f0160208091040260200160405190810160405280929190818152602001828054610d0f90611df7565b8015610d5c5780601f10610d3157610100808354040283529160200191610d5c565b820191906000526020600020905b815481529060010190602001808311610d3f57829003601f168201915b505050505090806003018054610d7190611df7565b80601f0160208091040260200160405190810160405280929190818152602001828054610d9d90611df7565b8015610dea5780601f10610dbf57610100808354040283529160200191610dea565b820191906000526020600020905b815481529060010190602001808311610dcd57829003601f168201915b5050505050908060040154908060050154905086565b61083b338383611449565b610e1533836111ed565b610e315760405162461bcd60e51b815260040161043890611e31565b610e3d84848484611517565b50505050565b60606000600860008481526020019081526020016000206040518060c00160405290816000820154815260200160018201548152602001600282018054610e8990611df7565b80601f0160208091040260200160405190810160405280929190818152602001828054610eb590611df7565b8015610f025780601f10610ed757610100808354040283529160200191610f02565b820191906000526020600020905b815481529060010190602001808311610ee557829003601f168201915b50505050508152602001600382018054610f1b90611df7565b80601f0160208091040260200160405190810160405280929190818152602001828054610f4790611df7565b8015610f945780601f10610f6957610100808354040283529160200191610f94565b820191906000526020600020905b815481529060010190602001808311610f7757829003601f168201915b505050505081526020016004820154815260200160058201548152505090506000610fc2826080015161154a565b90506000610fd38360a0015161154a565b905060006110238460400151610ff4886001610fef9190612094565b61154a565b8660600151868660405160200161100f9594939291906120c3565b60405160208183030381529060405261164b565b90506000816040516020016110389190612243565b60408051601f19818403018152919052979650505050505050565b6001600160a01b03918216600090815260056020908152604080832093909416825291909152205460ff1690565b6009602052816000526040600020818154811061109d57600080fd5b906000526020600020906006020160009150915050806000015490806001015490806002018054610ce390611df7565b6104d98383836040516024016110e593929190612288565b60408051601f198184030181529190526020810180516001600160e01b0316632ced7cef60e01b1790526117b5565b80546001019055565b6000818152600260205260409020546001600160a01b031661117c5760405162461bcd60e51b8152602060048201526018602482015277115490cdcc8c4e881a5b9d985b1a59081d1bdad95b88125160421b6044820152606401610438565b50565b600081815260046020526040902080546001600160a01b0319166001600160a01b03841690811790915581906111b482610bc6565b6001600160a01b03167f8c5be1e5ebec7d5bd14f71427d1e84f3dd0314c0f7b2291e5b200ac8c7c3b92560405160405180910390a45050565b6000806111f983610bc6565b9050806001600160a01b0316846001600160a01b0316148061122057506112208185611053565b806112445750836001600160a01b03166112398461039d565b6001600160a01b0316145b949350505050565b826001600160a01b031661125f82610bc6565b6001600160a01b0316146112c35760405162461bcd60e51b815260206004820152602560248201527f4552433732313a207472616e736665722066726f6d20696e636f72726563742060448201526437bbb732b960d91b6064820152608401610438565b6001600160a01b0382166113255760405162461bcd60e51b8152602060048201526024808201527f4552433732313a207472616e7366657220746f20746865207a65726f206164646044820152637265737360e01b6064820152608401610438565b61133060008261117f565b6001600160a01b03831660009081526003602052604081208054600192906113599084906122cb565b90915550506001600160a01b0382166000908152600360205260408120805460019290611387908490612094565b909155505060008181526002602052604080822080546001600160a01b0319166001600160a01b0386811691821790925591518493918716917fddf252ad1be2c89b69c2b068fc378daa952ba7f163c4a11628f55a4df523b3ef91a4505050565b6104d9838383604051602401611400939291906122de565b60408051601f198184030181529190526020810180516001600160e01b031663ca47c4eb60e01b1790526117b5565b61083b8282604051806020016040528060008152506117d6565b816001600160a01b0316836001600160a01b0316036114aa5760405162461bcd60e51b815260206004820152601960248201527f4552433732313a20617070726f766520746f2063616c6c6572000000000000006044820152606401610438565b6001600160a01b03838116600081815260056020908152604080832094871680845294825291829020805460ff191686151590811790915591519182527f17307eab39ab6107e8899845ad3d59bd9653f200f220920489ca2b5937696c31910160405180910390a3505050565b61152284848461124c565b61152e84848484611809565b610e3d5760405162461bcd60e51b815260040161043890612303565b6060816000036115715750506040805180820190915260018152600360fc1b602082015290565b8160005b811561159b578061158581612355565b91506115949050600a83612384565b9150611575565b60008167ffffffffffffffff8111156115b6576115b6611cd2565b6040519080825280601f01601f1916602001820160405280156115e0576020820181803683370190505b5090505b8415611244576115f56001836122cb565b9150611602600a86612398565b61160d906030612094565b60f81b81838151811061162257611622611e7f565b60200101906001600160f81b031916908160001a905350611644600a86612384565b94506115e4565b8051606090600081900361166f575050604080516020810190915260008152919050565b6000600361167e836002612094565b6116889190612384565b6116939060046123ac565b905060006116a2826020612094565b67ffffffffffffffff8111156116ba576116ba611cd2565b6040519080825280601f01601f1916602001820160405280156116e4576020820181803683370190505b509050600060405180606001604052806040815260200161241c604091399050600181016020830160005b86811015611770576003818a01810151603f601282901c8116860151600c83901c8216870151600684901c831688015192909316870151600891821b60ff94851601821b92841692909201901b91160160e01b83526004909201910161170f565b50600386066001811461178a576002811461179b576117a7565b613d3d60f01b6001198301526117a7565b603d60f81b6000198301525b505050918152949350505050565b80516a636f6e736f6c652e6c6f67602083016000808483855afa5050505050565b6117e0838361190a565b6117ed6000848484611809565b6104d95760405162461bcd60e51b815260040161043890612303565b60006001600160a01b0384163b156118ff57604051630a85bd0160e11b81526001600160a01b0385169063150b7a029061184d9033908990889088906004016123cb565b6020604051808303816000875af1925050508015611888575060408051601f3d908101601f19168201909252611885918101906123fe565b60015b6118e5573d8080156118b6576040519150601f19603f3d011682016040523d82523d6000602084013e6118bb565b606091505b5080516000036118dd5760405162461bcd60e51b815260040161043890612303565b805181602001fd5b6001600160e01b031916630a85bd0160e11b149050611244565b506001949350505050565b6001600160a01b0382166119605760405162461bcd60e51b815260206004820181905260248201527f4552433732313a206d696e7420746f20746865207a65726f20616464726573736044820152606401610438565b6000818152600260205260409020546001600160a01b0316156119c55760405162461bcd60e51b815260206004820152601c60248201527f4552433732313a20746f6b656e20616c7265616479206d696e746564000000006044820152606401610438565b6001600160a01b03821660009081526003602052604081208054600192906119ee908490612094565b909155505060008181526002602052604080822080546001600160a01b0319166001600160a01b03861690811790915590518392907fddf252ad1be2c89b69c2b068fc378daa952ba7f163c4a11628f55a4df523b3ef908290a45050565b6001600160e01b03198116811461117c57600080fd5b600060208284031215611a7457600080fd5b8135611a7f81611a4c565b9392505050565b60005b83811015611aa1578181015183820152602001611a89565b50506000910152565b60008151808452611ac2816020860160208601611a86565b601f01601f19169290920160200192915050565b602081526000611a7f6020830184611aaa565b600060208284031215611afb57600080fd5b5035919050565b80356001600160a01b0381168114611b1957600080fd5b919050565b60008060408385031215611b3157600080fd5b611b3a83611b02565b946020939093013593505050565b600080600060608486031215611b5d57600080fd5b611b6684611b02565b9250611b7460208501611b02565b9150604084013590509250925092565b60006020808301818452808551808352604092508286019150828160051b87010184880160005b83811015611c2657603f19898403018552815160c0815185528882015189860152878201518189870152611be182870182611aaa565b91505060608083015186830382880152611bfb8382611aaa565b6080858101519089015260a09485015194909701939093525050509386019390860190600101611bab565b509098975050505050505050565b600060208284031215611c4657600080fd5b611a7f82611b02565b86815285602082015260c060408201526000611c6e60c0830187611aaa565b8281036060840152611c808187611aaa565b6080840195909552505060a00152949350505050565b60008060408385031215611ca957600080fd5b611cb283611b02565b915060208301358015158114611cc757600080fd5b809150509250929050565b634e487b7160e01b600052604160045260246000fd5b60008060008060808587031215611cfe57600080fd5b611d0785611b02565b9350611d1560208601611b02565b925060408501359150606085013567ffffffffffffffff80821115611d3957600080fd5b818701915087601f830112611d4d57600080fd5b813581811115611d5f57611d5f611cd2565b604051601f8201601f19908116603f01168101908382118183101715611d8757611d87611cd2565b816040528281528a6020848701011115611da057600080fd5b82602086016020830137600060208483010152809550505050505092959194509250565b60008060408385031215611dd757600080fd5b611de083611b02565b9150611dee60208401611b02565b90509250929050565b600181811c90821680611e0b57607f821691505b602082108103611e2b57634e487b7160e01b600052602260045260246000fd5b50919050565b6020808252602e908201527f4552433732313a2063616c6c6572206973206e6f7420746f6b656e206f776e6560408201526d1c881b9bdc88185c1c1c9bdd995960921b606082015260800190565b634e487b7160e01b600052603260045260246000fd5b601f8211156104d957600081815260208120601f850160051c81016020861015611ebc5750805b601f850160051c820191505b81811015611edb57828155600101611ec8565b505050505050565b815167ffffffffffffffff811115611efd57611efd611cd2565b611f1181611f0b8454611df7565b84611e95565b602080601f831160018114611f465760008415611f2e5750858301515b600019600386901b1c1916600185901b178555611edb565b600085815260208120601f198616915b82811015611f7557888601518255948401946001909101908401611f56565b5085821015611f935787850151600019600388901b60f8161c191681555b5050505050600190811b01905550565b818103611fae575050565b611fb88254611df7565b67ffffffffffffffff811115611fd057611fd0611cd2565b611fde81611f0b8454611df7565b6000601f8211600181146120125760008315611ffa5750848201545b600019600385901b1c1916600184901b178455612077565b600085815260209020601f19841690600086815260209020845b8381101561204c578286015482556001958601959091019060200161202c565b508583101561206a5781850154600019600388901b60f8161c191681555b50505060018360011b0184555b5050505050565b634e487b7160e01b600052601160045260246000fd5b808201808211156103055761030561207e565b600081516120b9818560208601611a86565b9290920192915050565b693d913730b6b2911d101160b11b815285516000906120e981600a850160208b01611a86565b6701027232a10119d160c51b600a918401918201528651612111816012840160208b01611a86565b7f222c20226465736372697074696f6e223a2022412063757465206a656c6c7920601292909101918201527f4e465420746861742063616e2072756e20616e64206a756d7021222c2022696d60328201526630b3b2911d101160c91b60528201528551612185816059840160208a01611a86565b7f222c202261747472696275746573223a205b207b202274726169745f7479706560599290910191820152740111d101139b832b2b2111610113b30b63ab2911d1605d1b60798201526122376122276122216121e4608e8501896120a7565b7f7d2c207b202274726169745f74797065223a20224a756d70204865696768742281526a01610113b30b63ab2911d160ad1b6020820152602b0190565b866120a7565b637d205d7d60e01b815260040190565b98975050505050505050565b7f646174613a6170706c69636174696f6e2f6a736f6e3b6261736536342c00000081526000825161227b81601d850160208701611a86565b91909101601d0192915050565b60608152600061229b6060830186611aaa565b82810360208401526122ad8186611aaa565b905082810360408401526122c18185611aaa565b9695505050505050565b818103818111156103055761030561207e565b6060815260006122f16060830186611aaa565b60208301949094525060400152919050565b60208082526032908201527f4552433732313a207472616e7366657220746f206e6f6e20455243373231526560408201527131b2b4bb32b91034b6b83632b6b2b73a32b960711b606082015260800190565b6000600182016123675761236761207e565b5060010190565b634e487b7160e01b600052601260045260246000fd5b6000826123935761239361236e565b500490565b6000826123a7576123a761236e565b500690565b60008160001904831182151516156123c6576123c661207e565b500290565b6001600160a01b03858116825284166020820152604081018390526080606082018190526000906122c190830184611aaa565b60006020828403121561241057600080fd5b8151611a7f81611a4c56fe4142434445464748494a4b4c4d4e4f505152535455565758595a6162636465666768696a6b6c6d6e6f707172737475767778797a303132333435363738392b2f4d696e746564204e465420772f20746f6b656e496420257320616e6420696e646578202573a2646970667358221220ec38582e5ca50e5bdf8a12a64dca9d942debb56f7b322df7bc962d53893c8c5464736f6c63430008100033",
  "linkReferences": {},
  "deployedLinkReferences": {}
}